{
  "address": "0x095Eed959c7fe03bCc6d9dB7ba548CF65CC107Af",
  "abi": [
    {
      "inputs": [
        {
          "internalType": "string",
          "name": "name_",
          "type": "string"
        },
        {
          "internalType": "string",
          "name": "symbol_",
          "type": "string"
        }
      ],
      "stateMutability": "nonpayable",
      "type": "constructor"
    },
    {
      "inputs": [],
      "name": "ERC721EnumerableForbiddenBatchMint",
      "type": "error"
    },
    {
      "inputs": [
        {
          "internalType": "address",
          "name": "sender",
          "type": "address"
        },
        {
          "internalType": "uint256",
          "name": "tokenId",
          "type": "uint256"
        },
        {
          "internalType": "address",
          "name": "owner",
          "type": "address"
        }
      ],
      "name": "ERC721IncorrectOwner",
      "type": "error"
    },
    {
      "inputs": [
        {
          "internalType": "address",
          "name": "operator",
          "type": "address"
        },
        {
          "internalType": "uint256",
          "name": "tokenId",
          "type": "uint256"
        }
      ],
      "name": "ERC721InsufficientApproval",
      "type": "error"
    },
    {
      "inputs": [
        {
          "internalType": "address",
          "name": "approver",
          "type": "address"
        }
      ],
      "name": "ERC721InvalidApprover",
      "type": "error"
    },
    {
      "inputs": [
        {
          "internalType": "address",
          "name": "operator",
          "type": "address"
        }
      ],
      "name": "ERC721InvalidOperator",
      "type": "error"
    },
    {
      "inputs": [
        {
          "internalType": "address",
          "name": "owner",
          "type": "address"
        }
      ],
      "name": "ERC721InvalidOwner",
      "type": "error"
    },
    {
      "inputs": [
        {
          "internalType": "address",
          "name": "receiver",
          "type": "address"
        }
      ],
      "name": "ERC721InvalidReceiver",
      "type": "error"
    },
    {
      "inputs": [
        {
          "internalType": "address",
          "name": "sender",
          "type": "address"
        }
      ],
      "name": "ERC721InvalidSender",
      "type": "error"
    },
    {
      "inputs": [
        {
          "internalType": "uint256",
          "name": "tokenId",
          "type": "uint256"
        }
      ],
      "name": "ERC721NonexistentToken",
      "type": "error"
    },
    {
      "inputs": [
        {
          "internalType": "address",
          "name": "owner",
          "type": "address"
        },
        {
          "internalType": "uint256",
          "name": "index",
          "type": "uint256"
        }
      ],
      "name": "ERC721OutOfBoundsIndex",
      "type": "error"
    },
    {
      "inputs": [
        {
          "internalType": "address",
          "name": "owner",
          "type": "address"
        }
      ],
      "name": "OwnableInvalidOwner",
      "type": "error"
    },
    {
      "inputs": [
        {
          "internalType": "address",
          "name": "account",
          "type": "address"
        }
      ],
      "name": "OwnableUnauthorizedAccount",
      "type": "error"
    },
    {
      "anonymous": false,
      "inputs": [
        {
          "indexed": true,
          "internalType": "address",
          "name": "owner",
          "type": "address"
        },
        {
          "indexed": true,
          "internalType": "address",
          "name": "approved",
          "type": "address"
        },
        {
          "indexed": true,
          "internalType": "uint256",
          "name": "tokenId",
          "type": "uint256"
        }
      ],
      "name": "Approval",
      "type": "event"
    },
    {
      "anonymous": false,
      "inputs": [
        {
          "indexed": true,
          "internalType": "address",
          "name": "owner",
          "type": "address"
        },
        {
          "indexed": true,
          "internalType": "address",
          "name": "operator",
          "type": "address"
        },
        {
          "indexed": false,
          "internalType": "bool",
          "name": "approved",
          "type": "bool"
        }
      ],
      "name": "ApprovalForAll",
      "type": "event"
    },
    {
      "anonymous": false,
      "inputs": [
        {
          "indexed": false,
          "internalType": "uint256",
          "name": "_fromTokenId",
          "type": "uint256"
        },
        {
          "indexed": false,
          "internalType": "uint256",
          "name": "_toTokenId",
          "type": "uint256"
        }
      ],
      "name": "BatchMetadataUpdate",
      "type": "event"
    },
    {
      "anonymous": false,
      "inputs": [
        {
          "indexed": true,
          "internalType": "address",
          "name": "from",
          "type": "address"
        },
        {
          "indexed": true,
          "internalType": "address",
          "name": "to",
          "type": "address"
        },
        {
          "indexed": false,
          "internalType": "uint256[]",
          "name": "tokenIds",
          "type": "uint256[]"
        }
      ],
      "name": "BatchNFTTransferred",
      "type": "event"
    },
    {
      "anonymous": false,
      "inputs": [
        {
          "indexed": true,
          "internalType": "uint256",
          "name": "tokenId",
          "type": "uint256"
        },
        {
          "indexed": false,
          "internalType": "string",
          "name": "newImageURI",
          "type": "string"
        }
      ],
      "name": "ImageURIUpdated",
      "type": "event"
    },
    {
      "anonymous": false,
      "inputs": [
        {
          "indexed": false,
          "internalType": "uint256",
          "name": "_tokenId",
          "type": "uint256"
        }
      ],
      "name": "MetadataUpdate",
      "type": "event"
    },
    {
      "anonymous": false,
      "inputs": [
        {
          "indexed": true,
          "internalType": "uint256",
          "name": "tokenId",
          "type": "uint256"
        },
        {
          "indexed": false,
          "internalType": "string",
          "name": "newURI",
          "type": "string"
        }
      ],
      "name": "MetadataUpdated",
      "type": "event"
    },
    {
      "anonymous": false,
      "inputs": [
        {
          "indexed": true,
          "internalType": "address",
          "name": "to",
          "type": "address"
        },
        {
          "indexed": true,
          "internalType": "uint256",
          "name": "tokenId",
          "type": "uint256"
        },
        {
          "indexed": false,
          "internalType": "string",
          "name": "reason",
          "type": "string"
        },
        {
          "indexed": false,
          "internalType": "string",
          "name": "imageURI",
          "type": "string"
        }
      ],
      "name": "NFTMinted",
      "type": "event"
    },
    {
      "anonymous": false,
      "inputs": [
        {
          "indexed": true,
          "internalType": "address",
          "name": "from",
          "type": "address"
        },
        {
          "indexed": true,
          "internalType": "address",
          "name": "to",
          "type": "address"
        },
        {
          "indexed": true,
          "internalType": "uint256",
          "name": "tokenId",
          "type": "uint256"
        }
      ],
      "name": "NFTTransferred",
      "type": "event"
    },
    {
      "anonymous": false,
      "inputs": [
        {
          "indexed": true,
          "internalType": "address",
          "name": "previousOwner",
          "type": "address"
        },
        {
          "indexed": true,
          "internalType": "address",
          "name": "newOwner",
          "type": "address"
        }
      ],
      "name": "OwnershipTransferred",
      "type": "event"
    },
    {
      "anonymous": false,
      "inputs": [
        {
          "indexed": true,
          "internalType": "address",
          "name": "from",
          "type": "address"
        },
        {
          "indexed": true,
          "internalType": "address",
          "name": "to",
          "type": "address"
        },
        {
          "indexed": true,
          "internalType": "uint256",
          "name": "tokenId",
          "type": "uint256"
        }
      ],
      "name": "Transfer",
      "type": "event"
    },
    {
      "inputs": [
        {
          "internalType": "address",
          "name": "to",
          "type": "address"
        },
        {
          "internalType": "uint256",
          "name": "tokenId",
          "type": "uint256"
        }
      ],
      "name": "approve",
      "outputs": [],
      "stateMutability": "nonpayable",
      "type": "function"
    },
    {
      "inputs": [
        {
          "internalType": "address",
          "name": "owner",
          "type": "address"
        }
      ],
      "name": "balanceOf",
      "outputs": [
        {
          "internalType": "uint256",
          "name": "",
          "type": "uint256"
        }
      ],
      "stateMutability": "view",
      "type": "function"
    },
    {
      "inputs": [
        {
          "internalType": "address",
          "name": "recipient",
          "type": "address"
        },
        {
          "internalType": "string[]",
          "name": "tokenURIs",
          "type": "string[]"
        },
        {
          "internalType": "string[]",
          "name": "imageURIs",
          "type": "string[]"
        },
        {
          "internalType": "string",
          "name": "reason",
          "type": "string"
        },
        {
          "internalType": "string",
          "name": "additionalData",
          "type": "string"
        },
        {
          "internalType": "string",
          "name": "rarity",
          "type": "string"
        }
      ],
      "name": "batchMintNFTs",
      "outputs": [
        {
          "internalType": "uint256[]",
          "name": "",
          "type": "uint256[]"
        }
      ],
      "stateMutability": "nonpayable",
      "type": "function"
    },
    {
      "inputs": [
        {
          "internalType": "address",
          "name": "from",
          "type": "address"
        },
        {
          "internalType": "address",
          "name": "to",
          "type": "address"
        },
        {
          "internalType": "uint256[]",
          "name": "tokenIds",
          "type": "uint256[]"
        }
      ],
      "name": "batchTransferNFTs",
      "outputs": [],
      "stateMutability": "nonpayable",
      "type": "function"
    },
    {
      "inputs": [
        {
          "internalType": "address",
          "name": "from",
          "type": "address"
        },
        {
          "internalType": "address",
          "name": "to",
          "type": "address"
        },
        {
          "internalType": "uint256[]",
          "name": "tokenIds",
          "type": "uint256[]"
        }
      ],
      "name": "gameMasterBatchTransfer",
      "outputs": [],
      "stateMutability": "nonpayable",
      "type": "function"
    },
    {
      "inputs": [
        {
          "internalType": "address",
          "name": "from",
          "type": "address"
        },
        {
          "internalType": "address",
          "name": "to",
          "type": "address"
        },
        {
          "internalType": "uint256",
          "name": "tokenId",
          "type": "uint256"
        }
      ],
      "name": "gameMasterTransfer",
      "outputs": [],
      "stateMutability": "nonpayable",
      "type": "function"
    },
    {
      "inputs": [],
      "name": "getAllNFTs",
      "outputs": [
        {
          "internalType": "uint256[]",
          "name": "",
          "type": "uint256[]"
        }
      ],
      "stateMutability": "view",
      "type": "function"
    },
    {
      "inputs": [
        {
          "internalType": "uint256",
          "name": "tokenId",
          "type": "uint256"
        }
      ],
      "name": "getApproved",
      "outputs": [
        {
          "internalType": "address",
          "name": "",
          "type": "address"
        }
      ],
      "stateMutability": "view",
      "type": "function"
    },
    {
      "inputs": [
        {
          "internalType": "uint256",
          "name": "tokenId",
          "type": "uint256"
        }
      ],
      "name": "getImageURI",
      "outputs": [
        {
          "internalType": "string",
          "name": "",
          "type": "string"
        }
      ],
      "stateMutability": "view",
      "type": "function"
    },
    {
      "inputs": [
        {
          "internalType": "uint256",
          "name": "tokenId",
          "type": "uint256"
        }
      ],
      "name": "getNFTMetadata",
      "outputs": [
        {
          "internalType": "string",
          "name": "earningReason",
          "type": "string"
        },
        {
          "internalType": "uint256",
          "name": "earnedTimestamp",
          "type": "uint256"
        },
        {
          "internalType": "string",
          "name": "imageURI",
          "type": "string"
        },
        {
          "internalType": "string",
          "name": "additionalData",
          "type": "string"
        },
        {
          "internalType": "string",
          "name": "rarity",
          "type": "string"
        }
      ],
      "stateMutability": "view",
      "type": "function"
    },
    {
      "inputs": [
        {
          "internalType": "address",
          "name": "owner",
          "type": "address"
        }
      ],
      "name": "getTokensByOwner",
      "outputs": [
        {
          "internalType": "uint256[]",
          "name": "",
          "type": "uint256[]"
        }
      ],
      "stateMutability": "view",
      "type": "function"
    },
    {
      "inputs": [],
      "name": "getTotalNFTs",
      "outputs": [
        {
          "internalType": "uint256",
          "name": "",
          "type": "uint256"
        }
      ],
      "stateMutability": "view",
      "type": "function"
    },
    {
      "inputs": [
        {
          "internalType": "address",
          "name": "owner",
          "type": "address"
        },
        {
          "internalType": "address",
          "name": "operator",
          "type": "address"
        }
      ],
      "name": "isApprovedForAll",
      "outputs": [
        {
          "internalType": "bool",
          "name": "",
          "type": "bool"
        }
      ],
      "stateMutability": "view",
      "type": "function"
    },
    {
      "inputs": [
        {
          "internalType": "address",
          "name": "recipient",
          "type": "address"
        },
        {
          "internalType": "string",
          "name": "tokenURI",
          "type": "string"
        },
        {
          "internalType": "string",
          "name": "imageURI",
          "type": "string"
        },
        {
          "internalType": "string",
          "name": "reason",
          "type": "string"
        },
        {
          "internalType": "string",
          "name": "additionalData",
          "type": "string"
        },
        {
          "internalType": "string",
          "name": "rarity",
          "type": "string"
        }
      ],
      "name": "mintNFT",
      "outputs": [
        {
          "internalType": "uint256",
          "name": "",
          "type": "uint256"
        }
      ],
      "stateMutability": "nonpayable",
      "type": "function"
    },
    {
      "inputs": [],
      "name": "name",
      "outputs": [
        {
          "internalType": "string",
          "name": "",
          "type": "string"
        }
      ],
      "stateMutability": "view",
      "type": "function"
    },
    {
      "inputs": [],
      "name": "owner",
      "outputs": [
        {
          "internalType": "address",
          "name": "",
          "type": "address"
        }
      ],
      "stateMutability": "view",
      "type": "function"
    },
    {
      "inputs": [
        {
          "internalType": "uint256",
          "name": "tokenId",
          "type": "uint256"
        }
      ],
      "name": "ownerOf",
      "outputs": [
        {
          "internalType": "address",
          "name": "",
          "type": "address"
        }
      ],
      "stateMutability": "view",
      "type": "function"
    },
    {
      "inputs": [],
      "name": "renounceOwnership",
      "outputs": [],
      "stateMutability": "nonpayable",
      "type": "function"
    },
    {
      "inputs": [
        {
          "internalType": "address",
          "name": "from",
          "type": "address"
        },
        {
          "internalType": "address",
          "name": "to",
          "type": "address"
        },
        {
          "internalType": "uint256",
          "name": "tokenId",
          "type": "uint256"
        }
      ],
      "name": "safeTransferFrom",
      "outputs": [],
      "stateMutability": "nonpayable",
      "type": "function"
    },
    {
      "inputs": [
        {
          "internalType": "address",
          "name": "from",
          "type": "address"
        },
        {
          "internalType": "address",
          "name": "to",
          "type": "address"
        },
        {
          "internalType": "uint256",
          "name": "tokenId",
          "type": "uint256"
        },
        {
          "internalType": "bytes",
          "name": "data",
          "type": "bytes"
        }
      ],
      "name": "safeTransferFrom",
      "outputs": [],
      "stateMutability": "nonpayable",
      "type": "function"
    },
    {
      "inputs": [
        {
          "internalType": "address",
          "name": "operator",
          "type": "address"
        },
        {
          "internalType": "bool",
          "name": "approved",
          "type": "bool"
        }
      ],
      "name": "setApprovalForAll",
      "outputs": [],
      "stateMutability": "nonpayable",
      "type": "function"
    },
    {
      "inputs": [
        {
          "internalType": "bytes4",
          "name": "interfaceId",
          "type": "bytes4"
        }
      ],
      "name": "supportsInterface",
      "outputs": [
        {
          "internalType": "bool",
          "name": "",
          "type": "bool"
        }
      ],
      "stateMutability": "view",
      "type": "function"
    },
    {
      "inputs": [],
      "name": "symbol",
      "outputs": [
        {
          "internalType": "string",
          "name": "",
          "type": "string"
        }
      ],
      "stateMutability": "view",
      "type": "function"
    },
    {
      "inputs": [
        {
          "internalType": "uint256",
          "name": "index",
          "type": "uint256"
        }
      ],
      "name": "tokenByIndex",
      "outputs": [
        {
          "internalType": "uint256",
          "name": "",
          "type": "uint256"
        }
      ],
      "stateMutability": "view",
      "type": "function"
    },
    {
      "inputs": [
        {
          "internalType": "address",
          "name": "owner",
          "type": "address"
        },
        {
          "internalType": "uint256",
          "name": "index",
          "type": "uint256"
        }
      ],
      "name": "tokenOfOwnerByIndex",
      "outputs": [
        {
          "internalType": "uint256",
          "name": "",
          "type": "uint256"
        }
      ],
      "stateMutability": "view",
      "type": "function"
    },
    {
      "inputs": [
        {
          "internalType": "uint256",
          "name": "tokenId",
          "type": "uint256"
        }
      ],
      "name": "tokenURI",
      "outputs": [
        {
          "internalType": "string",
          "name": "",
          "type": "string"
        }
      ],
      "stateMutability": "view",
      "type": "function"
    },
    {
      "inputs": [],
      "name": "totalSupply",
      "outputs": [
        {
          "internalType": "uint256",
          "name": "",
          "type": "uint256"
        }
      ],
      "stateMutability": "view",
      "type": "function"
    },
    {
      "inputs": [
        {
          "internalType": "address",
          "name": "from",
          "type": "address"
        },
        {
          "internalType": "address",
          "name": "to",
          "type": "address"
        },
        {
          "internalType": "uint256",
          "name": "tokenId",
          "type": "uint256"
        }
      ],
      "name": "transferFrom",
      "outputs": [],
      "stateMutability": "nonpayable",
      "type": "function"
    },
    {
      "inputs": [
        {
          "internalType": "address",
          "name": "from",
          "type": "address"
        },
        {
          "internalType": "address",
          "name": "to",
          "type": "address"
        },
        {
          "internalType": "uint256",
          "name": "tokenId",
          "type": "uint256"
        }
      ],
      "name": "transferNFT",
      "outputs": [],
      "stateMutability": "nonpayable",
      "type": "function"
    },
    {
      "inputs": [
        {
          "internalType": "address",
          "name": "newOwner",
          "type": "address"
        }
      ],
      "name": "transferOwnership",
      "outputs": [],
      "stateMutability": "nonpayable",
      "type": "function"
    },
    {
      "inputs": [
        {
          "internalType": "uint256",
          "name": "tokenId",
          "type": "uint256"
        },
        {
          "internalType": "string",
          "name": "newImageURI",
          "type": "string"
        }
      ],
      "name": "updateImageURI",
      "outputs": [],
      "stateMutability": "nonpayable",
      "type": "function"
    },
    {
      "inputs": [
        {
          "internalType": "uint256",
          "name": "tokenId",
          "type": "uint256"
        },
        {
          "internalType": "string",
          "name": "newTokenURI",
          "type": "string"
        }
      ],
      "name": "updateTokenURI",
      "outputs": [],
      "stateMutability": "nonpayable",
      "type": "function"
    }
  ],
  "transactionHash": "0x634e028520b030fcfafd6303bb2577c093d3c63e4b582ef568d63f9c13a203f7",
  "args": [
    "Greenwhistle NFT",
    "GWNFT"
  ],
  "numDeployments": 1,
  "solcInputHash": "7888b0ec161594d20f40d11d8f94bf9b",
  "bytecode": "0x60806040523480156200001157600080fd5b5060405162002f6838038062002f688339810160408190526200003491620001b1565b3382826000620000458382620002aa565b506001620000548282620002aa565b5050506001600160a01b0381166200008657604051631e4fbdf760e01b81526000600482015260240160405180910390fd5b62000091816200009a565b50505062000376565b600b80546001600160a01b038381166001600160a01b0319831681179093556040519116919082907f8be0079c531659141344cd1fd0a4f28419497f9722a3daafe3b4186f6b6457e090600090a35050565b634e487b7160e01b600052604160045260246000fd5b600082601f8301126200011457600080fd5b81516001600160401b0380821115620001315762000131620000ec565b604051601f8301601f19908116603f011681019082821181831017156200015c576200015c620000ec565b816040528381526020925086838588010111156200017957600080fd5b600091505b838210156200019d57858201830151818301840152908201906200017e565b600093810190920192909252949350505050565b60008060408385031215620001c557600080fd5b82516001600160401b0380821115620001dd57600080fd5b620001eb8683870162000102565b935060208501519150808211156200020257600080fd5b50620002118582860162000102565b9150509250929050565b600181811c908216806200023057607f821691505b6020821081036200025157634e487b7160e01b600052602260045260246000fd5b50919050565b601f821115620002a557600081815260208120601f850160051c81016020861015620002805750805b601f850160051c820191505b81811015620002a1578281556001016200028c565b5050505b505050565b81516001600160401b03811115620002c657620002c6620000ec565b620002de81620002d784546200021b565b8462000257565b602080601f831160018114620003165760008415620002fd5750858301515b600019600386901b1c1916600185901b178555620002a1565b600085815260208120601f198616915b82811015620003475788860151825594840194600190910190840162000326565b5085821015620003665787850151600019600388901b60f8161c191681555b5050505050600190811b01905550565b612be280620003866000396000f3fe608060405234801561001057600080fd5b50600436106101f05760003560e01c80636be9a6f11161010f57806395d89b41116100a2578063e0391b0911610071578063e0391b0914610434578063e985e9c51461043c578063f2fde38b1461044f578063ff9c26641461046257600080fd5b806395d89b41146103f3578063a22cb465146103fb578063b88d4fde1461040e578063c87b56dd1461042157600080fd5b806381d6367d116100de57806381d6367d146103a95780638da5cb5b146103bc5780638dca144f146103cd5780638e5e6a28146103e057600080fd5b80636be9a6f1146103575780636ec7e0b21461037b57806370a082311461038e578063715018a6146103a157600080fd5b80632f745c591161018757806342842e0e1161015657806342842e0e1461030b5780634f6ccce71461031e5780636352211e1461033157806369e9cae11461034457600080fd5b80632f745c59146102ca57806330bdb351146102dd57806340398d67146102e5578063412e5f49146102f857600080fd5b806318160ddd116101c357806318160ddd1461027257806318e97fd11461028457806323b872dd1461029757806329575f15146102aa57600080fd5b806301ffc9a7146101f557806306fdde031461021d578063081812fc14610232578063095ea7b31461025d575b600080fd5b61020861020336600461229b565b610475565b60405190151581526020015b60405180910390f35b610225610486565b6040516102149190612308565b61024561024036600461231b565b610518565b6040516001600160a01b039091168152602001610214565b61027061026b366004612350565b610541565b005b6008545b604051908152602001610214565b610270610292366004612437565b610550565b6102706102a536600461247d565b6105d8565b6102bd6102b836600461256b565b610663565b604051610214919061264b565b6102766102d8366004612350565b6107f2565b610276610857565b6102bd6102f336600461268f565b610867565b61022561030636600461231b565b610922565b61027061031936600461247d565b6109f6565b61027661032c36600461231b565b610a16565b61024561033f36600461231b565b610a6f565b61027061035236600461247d565b610a7a565b61036a61036536600461231b565b610b7f565b6040516102149594939291906126aa565b610276610389366004612709565b610e4a565b61027661039c36600461268f565b610f66565b610270610fae565b6102706103b7366004612775565b610fc2565b600b546001600160a01b0316610245565b6102706103db366004612775565b61118f565b6102706103ee366004612437565b6112ff565b610225611384565b610270610409366004612828565b611393565b61027061041c366004612864565b61139e565b61022561042f36600461231b565b6113b5565b6102bd6113c0565b61020861044a3660046128df565b611467565b61027061045d36600461268f565b611495565b61027061047036600461247d565b6114d3565b600061048082611590565b92915050565b60606000805461049590612912565b80601f01602080910402602001604051908101604052809291908181526020018280546104c190612912565b801561050e5780601f106104e35761010080835404028352916020019161050e565b820191906000526020600020905b8154815290600101906020018083116104f157829003601f168201915b5050505050905090565b6000610523826115b5565b506000828152600460205260409020546001600160a01b0316610480565b61054c8282336115ed565b5050565b6105586115fa565b600061056383611627565b6001600160a01b0316036105925760405162461bcd60e51b81526004016105899061294c565b60405180910390fd5b61059c8282611642565b817f459157ba24c7ab9878b165ef465fa6ae2ab42bcd8445f576be378768b0c47309826040516105cc9190612308565b60405180910390a25050565b6001600160a01b03821661060257604051633250574960e11b815260006004820152602401610589565b600061060f838333611692565b9050836001600160a01b0316816001600160a01b03161461065d576040516364283d7b60e01b81526001600160a01b0380861660048301526024820184905282166044820152606401610589565b50505050565b606061066d6115fa565b60008651116106be5760405162461bcd60e51b815260206004820152601a60248201527f4d757374206d696e74206174206c65617374206f6e65204e46540000000000006044820152606401610589565b84518651146107245760405162461bcd60e51b815260206004820152602c60248201527f546f6b656e20616e6420696d61676520617272617973206d757374206861766560448201526b040e6c2daca40d8cadccee8d60a31b6064820152608401610589565b600086516001600160401b0381111561073f5761073f61237a565b604051908082528060200260200182016040528015610768578160200160208202803683370190505b50905060005b87518110156107e6576107b78989838151811061078d5761078d61297a565b60200260200101518984815181106107a7576107a761297a565b6020026020010151898989610e4a565b8282815181106107c9576107c961297a565b6020908102919091010152806107de816129a6565b91505061076e565b50979650505050505050565b60006107fd83610f66565b821061082e5760405163295f44f760e21b81526001600160a01b038416600482015260248101839052604401610589565b506001600160a01b03919091166000908152600660209081526040808320938352929052205490565b6000610862600c5490565b905090565b6060600061087483610f66565b9050806000036108985760408051600080825260208201909252905b509392505050565b6000816001600160401b038111156108b2576108b261237a565b6040519080825280602002602001820160405280156108db578160200160208202803683370190505b50905060005b82811015610890576108f385826107f2565b8282815181106109055761090561297a565b60209081029190910101528061091a816129a6565b9150506108e1565b6060600061092f83611627565b6001600160a01b0316036109555760405162461bcd60e51b81526004016105899061294c565b6000828152600d60205260409020600201805461097190612912565b80601f016020809104026020016040519081016040528092919081815260200182805461099d90612912565b80156109ea5780601f106109bf576101008083540402835291602001916109ea565b820191906000526020600020905b8154815290600101906020018083116109cd57829003601f168201915b50505050509050919050565b610a118383836040518060200160405280600081525061139e565b505050565b6000610a2160085490565b8210610a4a5760405163295f44f760e21b81526000600482015260248101839052604401610589565b60088281548110610a5d57610a5d61297a565b90600052602060002001549050919050565b6000610480826115b5565b6000610a8582611627565b6001600160a01b031603610aab5760405162461bcd60e51b81526004016105899061294c565b6001600160a01b038316331480610ad2575033610ac782610518565b6001600160a01b0316145b80610ae25750610ae28333611467565b610b2e5760405162461bcd60e51b815260206004820181905260248201527f43616c6c6572206973206e6f74206f776e6572206e6f7220617070726f7665646044820152606401610589565b610b398383836109f6565b80826001600160a01b0316846001600160a01b03167f209eb5082bc3bcbd509ae679a680b3bb2a11b77fea542a93e205020af76529fc60405160405180910390a4505050565b6060600081808083610b9087611627565b6001600160a01b031603610bb65760405162461bcd60e51b81526004016105899061294c565b6000868152600d6020526040808220815160a08101909252805482908290610bdd90612912565b80601f0160208091040260200160405190810160405280929190818152602001828054610c0990612912565b8015610c565780601f10610c2b57610100808354040283529160200191610c56565b820191906000526020600020905b815481529060010190602001808311610c3957829003601f168201915b5050505050815260200160018201548152602001600282018054610c7990612912565b80601f0160208091040260200160405190810160405280929190818152602001828054610ca590612912565b8015610cf25780601f10610cc757610100808354040283529160200191610cf2565b820191906000526020600020905b815481529060010190602001808311610cd557829003601f168201915b50505050508152602001600382018054610d0b90612912565b80601f0160208091040260200160405190810160405280929190818152602001828054610d3790612912565b8015610d845780601f10610d5957610100808354040283529160200191610d84565b820191906000526020600020905b815481529060010190602001808311610d6757829003601f168201915b50505050508152602001600482018054610d9d90612912565b80601f0160208091040260200160405190810160405280929190818152602001828054610dc990612912565b8015610e165780601f10610deb57610100808354040283529160200191610e16565b820191906000526020600020905b815481529060010190602001808311610df957829003601f168201915b5050509190925250508151602083015160408401516060850151608090950151929c919b5099509297509550909350505050565b6000610e546115fa565b610e62600c80546001019055565b6000610e6d600c5490565b9050610e7988826116a7565b610e838188611642565b6040805160a0810182528681524260208083019190915281830189905260608201879052608082018690526000848152600d9091529190912081518190610eca9082612a0d565b506020820151600182015560408201516002820190610ee99082612a0d565b5060608201516003820190610efe9082612a0d565b5060808201516004820190610f139082612a0d565b5090505080886001600160a01b03167fe260f93729f4de5d60ff8d8ab8c7e6afc76218c4cc0f6f7e617398e20a358a2d8789604051610f53929190612acc565b60405180910390a3979650505050505050565b60006001600160a01b038216610f92576040516322718ad960e21b815260006004820152602401610589565b506001600160a01b031660009081526003602052604090205490565b610fb66115fa565b610fc060006116c1565b565b60008151116110135760405162461bcd60e51b815260206004820152601e60248201527f4d757374207472616e73666572206174206c65617374206f6e65204e465400006044820152606401610589565b60005b815181101561113e5760008282815181106110335761103361297a565b6020026020010151905060006001600160a01b031661105182611627565b6001600160a01b0316036110775760405162461bcd60e51b81526004016105899061294c565b6001600160a01b03851633148061109e57503361109382610518565b6001600160a01b0316145b806110ae57506110ae8533611467565b6111205760405162461bcd60e51b815260206004820152603760248201527f43616c6c6572206973206e6f74206f776e6572206e6f7220617070726f76656460448201527f20666f72206f6e65206f72206d6f726520746f6b656e730000000000000000006064820152608401610589565b61112b8585836109f6565b5080611136816129a6565b915050611016565b50816001600160a01b0316836001600160a01b03167fb9356560645beda939d0fda4b0866c5c782fdb436e577a71112d6a6d0e1cab3683604051611182919061264b565b60405180910390a3505050565b6111976115fa565b60008151116111e85760405162461bcd60e51b815260206004820152601e60248201527f4d757374207472616e73666572206174206c65617374206f6e65204e465400006044820152606401610589565b60005b815181101561113e5760008282815181106112085761120861297a565b6020026020010151905060006001600160a01b031661122682611627565b6001600160a01b03160361124c5760405162461bcd60e51b81526004016105899061294c565b846001600160a01b031661125f82610a6f565b6001600160a01b0316146112d15760405162461bcd60e51b815260206004820152603360248201527f46726f6d2061646472657373206973206e6f7420746865206f776e6572206f66604482015272206f6e65206f72206d6f726520746f6b656e7360681b6064820152608401610589565b6112ec85858360405180602001604052806000815250611713565b50806112f7816129a6565b9150506111eb565b6113076115fa565b600061131283611627565b6001600160a01b0316036113385760405162461bcd60e51b81526004016105899061294c565b6000828152600d602052604090206002016113538282612a0d565b50817fc44d776786146efd7a19fd31681be2d271fa4a60fae7eb121f724808ba3d7021826040516105cc9190612308565b60606001805461049590612912565b61054c33838361171e565b6113a98484846105d8565b61065d848484846117b5565b6060610480826118de565b60606113ca6115fa565b60006113d560085490565b90506000816001600160401b038111156113f1576113f161237a565b60405190808252806020026020018201604052801561141a578160200160208202803683370190505b50905060005b828110156114605761143181610a16565b8282815181106114435761144361297a565b602090810291909101015280611458816129a6565b915050611420565b5091505090565b6001600160a01b03918216600090815260056020908152604080832093909416825291909152205460ff1690565b61149d6115fa565b6001600160a01b0381166114c757604051631e4fbdf760e01b815260006004820152602401610589565b6114d0816116c1565b50565b6114db6115fa565b60006114e682611627565b6001600160a01b03160361150c5760405162461bcd60e51b81526004016105899061294c565b826001600160a01b031661151f82610a6f565b6001600160a01b0316146115755760405162461bcd60e51b815260206004820152601d60248201527f46726f6d2061646472657373206973206e6f7420746865206f776e65720000006044820152606401610589565b610b3983838360405180602001604052806000815250611713565b60006001600160e01b03198216632483248360e11b14806104805750610480826119e7565b6000806115c183611627565b90506001600160a01b03811661048057604051637e27328960e01b815260048101849052602401610589565b610a118383836001611a0c565b600b546001600160a01b03163314610fc05760405163118cdaa760e01b8152336004820152602401610589565b6000908152600260205260409020546001600160a01b031690565b6000828152600a6020526040902061165a8282612a0d565b506040518281527ff8e1a15aba9398e019f0b49df1a4fde98ee17ae345cb5f6b5e2c27f5033e8ce79060200160405180910390a15050565b600061169f848484611b12565b949350505050565b61054c828260405180602001604052806000815250611bdf565b600b80546001600160a01b038381166001600160a01b0319831681179093556040519116919082907f8be0079c531659141344cd1fd0a4f28419497f9722a3daafe3b4186f6b6457e090600090a35050565b6113a9848484611bf6565b6001600160a01b03821661175057604051630b61174360e31b81526001600160a01b0383166004820152602401610589565b6001600160a01b03838116600081815260056020908152604080832094871680845294825291829020805460ff191686151590811790915591519182527f17307eab39ab6107e8899845ad3d59bd9653f200f220920489ca2b5937696c319101611182565b6001600160a01b0383163b1561065d57604051630a85bd0160e11b81526001600160a01b0384169063150b7a02906117f7903390889087908790600401612afa565b6020604051808303816000875af1925050508015611832575060408051601f3d908101601f1916820190925261182f91810190612b37565b60015b61189b573d808015611860576040519150601f19603f3d011682016040523d82523d6000602084013e611865565b606091505b50805160000361189357604051633250574960e11b81526001600160a01b0385166004820152602401610589565b805181602001fd5b6001600160e01b03198116630a85bd0160e11b146118d757604051633250574960e11b81526001600160a01b0385166004820152602401610589565b5050505050565b60606118e9826115b5565b506000828152600a60205260408120805461190390612912565b80601f016020809104026020016040519081016040528092919081815260200182805461192f90612912565b801561197c5780601f106119515761010080835404028352916020019161197c565b820191906000526020600020905b81548152906001019060200180831161195f57829003601f168201915b50505050509050600061199a60408051602081019091526000815290565b905080516000036119ac575092915050565b8151156119de5780826040516020016119c6929190612b54565b60405160208183030381529060405292505050919050565b61169f84611ca6565b60006001600160e01b0319821663780e9d6360e01b1480610480575061048082611d1b565b8080611a2057506001600160a01b03821615155b15611ae2576000611a30846115b5565b90506001600160a01b03831615801590611a5c5750826001600160a01b0316816001600160a01b031614155b8015611a6f5750611a6d8184611467565b155b15611a985760405163a9fbf51f60e01b81526001600160a01b0384166004820152602401610589565b8115611ae05783856001600160a01b0316826001600160a01b03167f8c5be1e5ebec7d5bd14f71427d1e84f3dd0314c0f7b2291e5b200ac8c7c3b92560405160405180910390a45b505b5050600090815260046020526040902080546001600160a01b0319166001600160a01b0392909216919091179055565b600080611b20858585611d6b565b90506001600160a01b038116611b7d57611b7884600880546000838152600960205260408120829055600182018355919091527ff3f7a9fe364faab93b216da50a3214154f22a0a2b415b23a84c8169e8b636ee30155565b611ba0565b846001600160a01b0316816001600160a01b031614611ba057611ba08185611e5f565b6001600160a01b038516611bbc57611bb784611ef0565b61169f565b846001600160a01b0316816001600160a01b03161461169f5761169f8585611f9f565b611be98383611fef565b610a1160008484846117b5565b6001600160a01b038216611c2057604051633250574960e11b815260006004820152602401610589565b6000611c2e83836000611692565b90506001600160a01b038116611c5a57604051637e27328960e01b815260048101839052602401610589565b836001600160a01b0316816001600160a01b03161461065d576040516364283d7b60e01b81526001600160a01b0380861660048301526024820184905282166044820152606401610589565b6060611cb1826115b5565b506000611cc960408051602081019091526000815290565b90506000815111611ce95760405180602001604052806000815250611d14565b80611cf384612054565b604051602001611d04929190612b54565b6040516020818303038152906040525b9392505050565b60006001600160e01b031982166380ac58cd60e01b1480611d4c57506001600160e01b03198216635b5e139f60e01b145b8061048057506301ffc9a760e01b6001600160e01b0319831614610480565b600080611d7784611627565b90506001600160a01b03831615611d9357611d938184866120e6565b6001600160a01b03811615611dd157611db0600085600080611a0c565b6001600160a01b038116600090815260036020526040902080546000190190555b6001600160a01b03851615611e00576001600160a01b0385166000908152600360205260409020805460010190555b60008481526002602052604080822080546001600160a01b0319166001600160a01b0389811691821790925591518793918516917fddf252ad1be2c89b69c2b068fc378daa952ba7f163c4a11628f55a4df523b3ef91a4949350505050565b6000611e6a83610f66565b600083815260076020526040902054909150808214611ebd576001600160a01b03841660009081526006602090815260408083208584528252808320548484528184208190558352600790915290208190555b5060009182526007602090815260408084208490556001600160a01b039094168352600681528383209183525290812055565b600854600090611f0290600190612b83565b60008381526009602052604081205460088054939450909284908110611f2a57611f2a61297a565b906000526020600020015490508060088381548110611f4b57611f4b61297a565b6000918252602080832090910192909255828152600990915260408082208490558582528120556008805480611f8357611f83612b96565b6001900381819060005260206000200160009055905550505050565b60006001611fac84610f66565b611fb69190612b83565b6001600160a01b039093166000908152600660209081526040808320868452825280832085905593825260079052919091209190915550565b6001600160a01b03821661201957604051633250574960e11b815260006004820152602401610589565b600061202783836000611692565b90506001600160a01b03811615610a11576040516339e3563760e11b815260006004820152602401610589565b606060006120618361214a565b60010190506000816001600160401b038111156120805761208061237a565b6040519080825280601f01601f1916602001820160405280156120aa576020820181803683370190505b5090508181016020015b600019016f181899199a1a9b1b9c1cb0b131b232b360811b600a86061a8153600a85049450846120b457509392505050565b6120f1838383612222565b610a11576001600160a01b03831661211f57604051637e27328960e01b815260048101829052602401610589565b60405163177e802f60e01b81526001600160a01b038316600482015260248101829052604401610589565b60008072184f03e93ff9f4daa797ed6e38ed64bf6a1f0160401b83106121895772184f03e93ff9f4daa797ed6e38ed64bf6a1f0160401b830492506040015b6d04ee2d6d415b85acef810000000083106121b5576d04ee2d6d415b85acef8100000000830492506020015b662386f26fc1000083106121d357662386f26fc10000830492506010015b6305f5e10083106121eb576305f5e100830492506008015b61271083106121ff57612710830492506004015b60648310612211576064830492506002015b600a83106104805760010192915050565b60006001600160a01b0383161580159061169f5750826001600160a01b0316846001600160a01b0316148061225c575061225c8484611467565b8061169f5750506000908152600460205260409020546001600160a01b03908116911614919050565b6001600160e01b0319811681146114d057600080fd5b6000602082840312156122ad57600080fd5b8135611d1481612285565b60005b838110156122d35781810151838201526020016122bb565b50506000910152565b600081518084526122f48160208601602086016122b8565b601f01601f19169290920160200192915050565b602081526000611d1460208301846122dc565b60006020828403121561232d57600080fd5b5035919050565b80356001600160a01b038116811461234b57600080fd5b919050565b6000806040838503121561236357600080fd5b61236c83612334565b946020939093013593505050565b634e487b7160e01b600052604160045260246000fd5b604051601f8201601f191681016001600160401b03811182821017156123b8576123b861237a565b604052919050565b60006001600160401b038311156123d9576123d961237a565b6123ec601f8401601f1916602001612390565b905082815283838301111561240057600080fd5b828260208301376000602084830101529392505050565b600082601f83011261242857600080fd5b611d14838335602085016123c0565b6000806040838503121561244a57600080fd5b8235915060208301356001600160401b0381111561246757600080fd5b61247385828601612417565b9150509250929050565b60008060006060848603121561249257600080fd5b61249b84612334565b92506124a960208501612334565b9150604084013590509250925092565b60006001600160401b038211156124d2576124d261237a565b5060051b60200190565b600082601f8301126124ed57600080fd5b813560206125026124fd836124b9565b612390565b82815260059290921b8401810191818101908684111561252157600080fd5b8286015b848110156125605780356001600160401b038111156125445760008081fd5b6125528986838b0101612417565b845250918301918301612525565b509695505050505050565b60008060008060008060c0878903121561258457600080fd5b61258d87612334565b955060208701356001600160401b03808211156125a957600080fd5b6125b58a838b016124dc565b965060408901359150808211156125cb57600080fd5b6125d78a838b016124dc565b955060608901359150808211156125ed57600080fd5b6125f98a838b01612417565b9450608089013591508082111561260f57600080fd5b61261b8a838b01612417565b935060a089013591508082111561263157600080fd5b5061263e89828a01612417565b9150509295509295509295565b6020808252825182820181905260009190848201906040850190845b8181101561268357835183529284019291840191600101612667565b50909695505050505050565b6000602082840312156126a157600080fd5b611d1482612334565b60a0815260006126bd60a08301886122dc565b86602084015282810360408401526126d581876122dc565b905082810360608401526126e981866122dc565b905082810360808401526126fd81856122dc565b98975050505050505050565b60008060008060008060c0878903121561272257600080fd5b61272b87612334565b955060208701356001600160401b038082111561274757600080fd5b6127538a838b01612417565b9650604089013591508082111561276957600080fd5b6125d78a838b01612417565b60008060006060848603121561278a57600080fd5b61279384612334565b925060206127a2818601612334565b925060408501356001600160401b038111156127bd57600080fd5b8501601f810187136127ce57600080fd5b80356127dc6124fd826124b9565b81815260059190911b820183019083810190898311156127fb57600080fd5b928401925b8284101561281957833582529284019290840190612800565b80955050505050509250925092565b6000806040838503121561283b57600080fd5b61284483612334565b91506020830135801515811461285957600080fd5b809150509250929050565b6000806000806080858703121561287a57600080fd5b61288385612334565b935061289160208601612334565b92506040850135915060608501356001600160401b038111156128b357600080fd5b8501601f810187136128c457600080fd5b6128d3878235602084016123c0565b91505092959194509250565b600080604083850312156128f257600080fd5b6128fb83612334565b915061290960208401612334565b90509250929050565b600181811c9082168061292657607f821691505b60208210810361294657634e487b7160e01b600052602260045260246000fd5b50919050565b602080825260149082015273151bdad95b88191bd95cc81b9bdd08195e1a5cdd60621b604082015260600190565b634e487b7160e01b600052603260045260246000fd5b634e487b7160e01b600052601160045260246000fd5b6000600182016129b8576129b8612990565b5060010190565b601f821115610a1157600081815260208120601f850160051c810160208610156129e65750805b601f850160051c820191505b81811015612a05578281556001016129f2565b505050505050565b81516001600160401b03811115612a2657612a2661237a565b612a3a81612a348454612912565b846129bf565b602080601f831160018114612a6f5760008415612a575750858301515b600019600386901b1c1916600185901b178555612a05565b600085815260208120601f198616915b82811015612a9e57888601518255948401946001909101908401612a7f565b5085821015612abc5787850151600019600388901b60f8161c191681555b5050505050600190811b01905550565b604081526000612adf60408301856122dc565b8281036020840152612af181856122dc565b95945050505050565b6001600160a01b0385811682528416602082015260408101839052608060608201819052600090612b2d908301846122dc565b9695505050505050565b600060208284031215612b4957600080fd5b8151611d1481612285565b60008351612b668184602088016122b8565b835190830190612b7a8183602088016122b8565b01949350505050565b8181038181111561048057610480612990565b634e487b7160e01b600052603160045260246000fdfea264697066735822122005974aa30b373f0d18812e236c8fa6b8ad464811c8be0350c2030467f0bb170364736f6c63430008140033",
  "devdoc": {
    "errors": {
      "ERC721EnumerableForbiddenBatchMint()": [
        {
          "details": "Batch mint is not allowed."
        }
      ],
      "ERC721IncorrectOwner(address,uint256,address)": [
        {
          "details": "Indicates an error related to the ownership over a particular token. Used in transfers.",
          "params": {
            "owner": "Address of the current owner of a token.",
            "sender": "Address whose tokens are being transferred.",
            "tokenId": "Identifier number of a token."
          }
        }
      ],
      "ERC721InsufficientApproval(address,uint256)": [
        {
          "details": "Indicates a failure with the `operator`s approval. Used in transfers.",
          "params": {
            "operator": "Address that may be allowed to operate on tokens without being their owner.",
            "tokenId": "Identifier number of a token."
          }
        }
      ],
      "ERC721InvalidApprover(address)": [
        {
          "details": "Indicates a failure with the `approver` of a token to be approved. Used in approvals.",
          "params": {
            "approver": "Address initiating an approval operation."
          }
        }
      ],
      "ERC721InvalidOperator(address)": [
        {
          "details": "Indicates a failure with the `operator` to be approved. Used in approvals.",
          "params": {
            "operator": "Address that may be allowed to operate on tokens without being their owner."
          }
        }
      ],
      "ERC721InvalidOwner(address)": [
        {
          "details": "Indicates that an address can't be an owner. For example, `address(0)` is a forbidden owner in EIP-20. Used in balance queries.",
          "params": {
            "owner": "Address of the current owner of a token."
          }
        }
      ],
      "ERC721InvalidReceiver(address)": [
        {
          "details": "Indicates a failure with the token `receiver`. Used in transfers.",
          "params": {
            "receiver": "Address to which tokens are being transferred."
          }
        }
      ],
      "ERC721InvalidSender(address)": [
        {
          "details": "Indicates a failure with the token `sender`. Used in transfers.",
          "params": {
            "sender": "Address whose tokens are being transferred."
          }
        }
      ],
      "ERC721NonexistentToken(uint256)": [
        {
          "details": "Indicates a `tokenId` whose `owner` is the zero address.",
          "params": {
            "tokenId": "Identifier number of a token."
          }
        }
      ],
      "ERC721OutOfBoundsIndex(address,uint256)": [
        {
          "details": "An `owner`'s token query was out of bounds for `index`. NOTE: The owner being `address(0)` indicates a global out of bounds index."
        }
      ],
      "OwnableInvalidOwner(address)": [
        {
          "details": "The owner is not a valid owner account. (eg. `address(0)`)"
        }
      ],
      "OwnableUnauthorizedAccount(address)": [
        {
          "details": "The caller account is not authorized to perform an operation."
        }
      ]
    },
    "events": {
      "Approval(address,address,uint256)": {
        "details": "Emitted when `owner` enables `approved` to manage the `tokenId` token."
      },
      "ApprovalForAll(address,address,bool)": {
        "details": "Emitted when `owner` enables or disables (`approved`) `operator` to manage all of its assets."
      },
      "BatchMetadataUpdate(uint256,uint256)": {
        "details": "This event emits when the metadata of a range of tokens is changed. So that the third-party platforms such as NFT market could timely update the images and related attributes of the NFTs."
      },
      "MetadataUpdate(uint256)": {
        "details": "This event emits when the metadata of a token is changed. So that the third-party platforms such as NFT market could timely update the images and related attributes of the NFT."
      },
      "Transfer(address,address,uint256)": {
        "details": "Emitted when `tokenId` token is transferred from `from` to `to`."
      }
    },
    "kind": "dev",
    "methods": {
      "approve(address,uint256)": {
        "details": "See {IERC721-approve}."
      },
      "balanceOf(address)": {
        "details": "See {IERC721-balanceOf}."
      },
      "getApproved(uint256)": {
        "details": "See {IERC721-getApproved}."
      },
      "isApprovedForAll(address,address)": {
        "details": "See {IERC721-isApprovedForAll}."
      },
      "name()": {
        "details": "See {IERC721Metadata-name}."
      },
      "owner()": {
        "details": "Returns the address of the current owner."
      },
      "ownerOf(uint256)": {
        "details": "See {IERC721-ownerOf}."
      },
      "renounceOwnership()": {
        "details": "Leaves the contract without owner. It will not be possible to call `onlyOwner` functions. Can only be called by the current owner. NOTE: Renouncing ownership will leave the contract without an owner, thereby disabling any functionality that is only available to the owner."
      },
      "safeTransferFrom(address,address,uint256)": {
        "details": "See {IERC721-safeTransferFrom}."
      },
      "safeTransferFrom(address,address,uint256,bytes)": {
        "details": "See {IERC721-safeTransferFrom}."
      },
      "setApprovalForAll(address,bool)": {
        "details": "See {IERC721-setApprovalForAll}."
      },
      "symbol()": {
        "details": "See {IERC721Metadata-symbol}."
      },
      "tokenByIndex(uint256)": {
        "details": "See {IERC721Enumerable-tokenByIndex}."
      },
      "tokenOfOwnerByIndex(address,uint256)": {
        "details": "See {IERC721Enumerable-tokenOfOwnerByIndex}."
      },
      "totalSupply()": {
        "details": "See {IERC721Enumerable-totalSupply}."
      },
      "transferFrom(address,address,uint256)": {
        "details": "See {IERC721-transferFrom}."
      },
      "transferOwnership(address)": {
        "details": "Transfers ownership of the contract to a new account (`newOwner`). Can only be called by the current owner."
      }
    },
    "version": 1
  },
  "userdoc": {
    "kind": "user",
    "methods": {},
    "version": 1
  },
  "storageLayout": {
    "storage": [
      {
        "astId": 968,
        "contract": "contracts/GameNfts.sol:GameNfts",
        "label": "_name",
        "offset": 0,
        "slot": "0",
        "type": "t_string_storage"
      },
      {
        "astId": 970,
        "contract": "contracts/GameNfts.sol:GameNfts",
        "label": "_symbol",
        "offset": 0,
        "slot": "1",
        "type": "t_string_storage"
      },
      {
        "astId": 974,
        "contract": "contracts/GameNfts.sol:GameNfts",
        "label": "_owners",
        "offset": 0,
        "slot": "2",
        "type": "t_mapping(t_uint256,t_address)"
      },
      {
        "astId": 978,
        "contract": "contracts/GameNfts.sol:GameNfts",
        "label": "_balances",
        "offset": 0,
        "slot": "3",
        "type": "t_mapping(t_address,t_uint256)"
      },
      {
        "astId": 982,
        "contract": "contracts/GameNfts.sol:GameNfts",
        "label": "_tokenApprovals",
        "offset": 0,
        "slot": "4",
        "type": "t_mapping(t_uint256,t_address)"
      },
      {
        "astId": 988,
        "contract": "contracts/GameNfts.sol:GameNfts",
        "label": "_operatorApprovals",
        "offset": 0,
        "slot": "5",
        "type": "t_mapping(t_address,t_mapping(t_address,t_bool))"
      },
      {
        "astId": 2098,
        "contract": "contracts/GameNfts.sol:GameNfts",
        "label": "_ownedTokens",
        "offset": 0,
        "slot": "6",
        "type": "t_mapping(t_address,t_mapping(t_uint256,t_uint256))"
      },
      {
        "astId": 2102,
        "contract": "contracts/GameNfts.sol:GameNfts",
        "label": "_ownedTokensIndex",
        "offset": 0,
        "slot": "7",
        "type": "t_mapping(t_uint256,t_uint256)"
      },
      {
        "astId": 2105,
        "contract": "contracts/GameNfts.sol:GameNfts",
        "label": "_allTokens",
        "offset": 0,
        "slot": "8",
        "type": "t_array(t_uint256)dyn_storage"
      },
      {
        "astId": 2109,
        "contract": "contracts/GameNfts.sol:GameNfts",
        "label": "_allTokensIndex",
        "offset": 0,
        "slot": "9",
        "type": "t_mapping(t_uint256,t_uint256)"
      },
      {
        "astId": 2491,
        "contract": "contracts/GameNfts.sol:GameNfts",
        "label": "_tokenURIs",
        "offset": 0,
        "slot": "10",
        "type": "t_mapping(t_uint256,t_string_storage)"
      },
      {
        "astId": 8,
        "contract": "contracts/GameNfts.sol:GameNfts",
        "label": "_owner",
        "offset": 0,
        "slot": "11",
        "type": "t_address"
      },
      {
        "astId": 4340,
        "contract": "contracts/GameNfts.sol:GameNfts",
        "label": "_tokenIds",
        "offset": 0,
        "slot": "12",
        "type": "t_struct(Counter)8401_storage"
      },
      {
        "astId": 4356,
        "contract": "contracts/GameNfts.sol:GameNfts",
        "label": "_nftMetadata",
        "offset": 0,
        "slot": "13",
        "type": "t_mapping(t_uint256,t_struct(NFTMetadata)4351_storage)"
      }
    ],
    "types": {
      "t_address": {
        "encoding": "inplace",
        "label": "address",
        "numberOfBytes": "20"
      },
      "t_array(t_uint256)dyn_storage": {
        "base": "t_uint256",
        "encoding": "dynamic_array",
        "label": "uint256[]",
        "numberOfBytes": "32"
      },
      "t_bool": {
        "encoding": "inplace",
        "label": "bool",
        "numberOfBytes": "1"
      },
      "t_mapping(t_address,t_bool)": {
        "encoding": "mapping",
        "key": "t_address",
        "label": "mapping(address => bool)",
        "numberOfBytes": "32",
        "value": "t_bool"
      },
      "t_mapping(t_address,t_mapping(t_address,t_bool))": {
        "encoding": "mapping",
        "key": "t_address",
        "label": "mapping(address => mapping(address => bool))",
        "numberOfBytes": "32",
        "value": "t_mapping(t_address,t_bool)"
      },
      "t_mapping(t_address,t_mapping(t_uint256,t_uint256))": {
        "encoding": "mapping",
        "key": "t_address",
        "label": "mapping(address => mapping(uint256 => uint256))",
        "numberOfBytes": "32",
        "value": "t_mapping(t_uint256,t_uint256)"
      },
      "t_mapping(t_address,t_uint256)": {
        "encoding": "mapping",
        "key": "t_address",
        "label": "mapping(address => uint256)",
        "numberOfBytes": "32",
        "value": "t_uint256"
      },
      "t_mapping(t_uint256,t_address)": {
        "encoding": "mapping",
        "key": "t_uint256",
        "label": "mapping(uint256 => address)",
        "numberOfBytes": "32",
        "value": "t_address"
      },
      "t_mapping(t_uint256,t_string_storage)": {
        "encoding": "mapping",
        "key": "t_uint256",
        "label": "mapping(uint256 => string)",
        "numberOfBytes": "32",
        "value": "t_string_storage"
      },
      "t_mapping(t_uint256,t_struct(NFTMetadata)4351_storage)": {
        "encoding": "mapping",
        "key": "t_uint256",
        "label": "mapping(uint256 => struct GameNfts.NFTMetadata)",
        "numberOfBytes": "32",
        "value": "t_struct(NFTMetadata)4351_storage"
      },
      "t_mapping(t_uint256,t_uint256)": {
        "encoding": "mapping",
        "key": "t_uint256",
        "label": "mapping(uint256 => uint256)",
        "numberOfBytes": "32",
        "value": "t_uint256"
      },
      "t_string_storage": {
        "encoding": "bytes",
        "label": "string",
        "numberOfBytes": "32"
      },
      "t_struct(Counter)8401_storage": {
        "encoding": "inplace",
        "label": "struct Counters.Counter",
        "members": [
          {
            "astId": 8400,
            "contract": "contracts/GameNfts.sol:GameNfts",
            "label": "_value",
            "offset": 0,
            "slot": "0",
            "type": "t_uint256"
          }
        ],
        "numberOfBytes": "32"
      },
      "t_struct(NFTMetadata)4351_storage": {
        "encoding": "inplace",
        "label": "struct GameNfts.NFTMetadata",
        "members": [
          {
            "astId": 4342,
            "contract": "contracts/GameNfts.sol:GameNfts",
            "label": "earningReason",
            "offset": 0,
            "slot": "0",
            "type": "t_string_storage"
          },
          {
            "astId": 4344,
            "contract": "contracts/GameNfts.sol:GameNfts",
            "label": "earnedTimestamp",
            "offset": 0,
            "slot": "1",
            "type": "t_uint256"
          },
          {
            "astId": 4346,
            "contract": "contracts/GameNfts.sol:GameNfts",
            "label": "imageURI",
            "offset": 0,
            "slot": "2",
            "type": "t_string_storage"
          },
          {
            "astId": 4348,
            "contract": "contracts/GameNfts.sol:GameNfts",
            "label": "additionalData",
            "offset": 0,
            "slot": "3",
            "type": "t_string_storage"
          },
          {
            "astId": 4350,
            "contract": "contracts/GameNfts.sol:GameNfts",
            "label": "rarity",
            "offset": 0,
            "slot": "4",
            "type": "t_string_storage"
          }
        ],
        "numberOfBytes": "160"
      },
      "t_uint256": {
        "encoding": "inplace",
        "label": "uint256",
        "numberOfBytes": "32"
      }
    }
  }
}